:100000000C947A000C94A2000C94A2000C94A20010
:100010000C94A2000C94A2000C94A2000C94A200D8
:100020000C94A2000C94A2000C94A2000C94A200C8
:100030000C94A2000C94A2000C94A2000C94A200B8
:100040000C9448120C94A2000C94B8120C949212C6
:100050000C94A2000C94A2000C94A2000C94A20098
:100060000C94A2000C94A2000000000023002600C3
:10007000290000000000240027002A0000000000E2
:10008000250028002B0004040404040404040202D4
:100090000202020203030303030301020408102007
:1000A0004080010204081020010204081020000012
:1000B0000008000201000003040700000000000027
:1000C0000000CDCCCC3D0AD7233C17B7D13877CC34
:1000D0002B329595E6241FB14F0A00002041000005
:1000E000C84200401C4620BCBE4CCA1B0E5AAEC5BE
:1000F0009D74D61811241FBECFEFD8E0DEBFCDBF50
:1001000011E0A0E0B1E0ECEEFAE302C005900D9240
:10011000A039B107D9F722E0A0E9B1E001C01D92F2
:10012000A734B207E1F710E0CAE7D0E004C0219796
:10013000FE010E94751BC937D107C9F70E94EA1258
:100140000C94741D0C940000833081F028F48130ED
:1001500099F08230A9F008958730A9F08830C9F06D
:100160008430B1F4809180008F7D03C08091800045
:100170008F7780938000089584B58F7784BD08952C
:1001800084B58F7DFBCF8091B0008F778093B000D6
:1001900008958091B0008F7DF9CF1F93CF93DF93A7
:1001A000282F30E0F901E255FF4F8491F901E6561E
:1001B000FF4FD491F901EA57FF4FC491CC23A9F026
:1001C000162F81110E94A400EC2FF0E0EE0FFF1F0C
:1001D000E458FF4FA591B4918FB7F894EC911111A9
:1001E00008C0D095DE23DC938FBFDF91CF911F91A4
:1001F0000895DE2BF8CFCF93DF9390E0FC01E65615
:10020000FF4F24918A579F4FFC0184918823D1F09E
:1002100090E0880F991FFC01EE58FF4FA591B49113
:10022000FC01E458FF4FC591D491623071F49FB73F
:10023000F8943C91822F809583238C93E8812E2B18
:1002400028839FBFDF91CF9108958FB7F894EC91E9
:100250002E2B2C938FBFF6CF1F93CF93DF93182FA6
:10026000EB0161E00E94FB00209739F460E0812FF0
:10027000DF91CF911F910C94CD00CF3FD10511F4A8
:1002800061E0F5CFE12FF0E0E255FF4FE491E3307C
:1002900031F140F4E130B1F0E230E1F0C038D105A5
:1002A0007CF7E4CFE73029F1E83059F1E430B1F7D9
:1002B00080918000806280938000D0938B00C093F7
:1002C0008A0004C084B5806884BDC7BDDF91CF912A
:1002D0001F91089584B5806284BDC8BDF7CF809119
:1002E0008000806880938000D0938900C09388004C
:1002F000EDCF8091B00080688093B000C093B300D0
:10030000E5CF8091B00080628093B000C093B400CC
:10031000DDCF8E50806480937C0080917A00806471
:1003200080937A0080917A0086FDFCCF80917800DE
:100330009091790008953FB7F8948091A20190912F
:10034000A301A091A401B091A50126B5A89B05C069
:100350002F3F19F00196A11DB11D3FBFBA2FA92F44
:10036000982F8827BC01CD01620F711D811D911D41
:1003700042E0660F771F881F991F4A95D1F70895AD
:100380008F929F92AF92BF92CF92DF92EF92FF92A5
:100390000E949B014B015C0184E6C82ED12CE12C0C
:1003A000F12C0E949B01681979098A099B09683E12
:1003B000734081059105A8F321E0C21AD108E10834
:1003C000F10888EE880E83E0981EA11CB11CC114B0
:1003D000D104E104F10429F7FF90EF90DF90CF9072
:1003E000BF90AF909F908F9008952FB7F894609131
:1003F0009E0170919F018091A0019091A1012FBF5A
:100400000895AF92BF92CF92DF92EF92FF920F9337
:100410001F93CF93DF936C017B018B01040F151F9A
:10042000EB015E01AE18BF08C017D10759F0699102
:10043000D601ED91FC910190F081E02DC601099566
:10044000892B79F7C501DF91CF911F910F91FF9013
:10045000EF90DF90CF90BF90AF90089542E050E0D2
:1004600066E271E086EA91E00C940102FC01538D92
:10047000448D252F30E0842F90E0821B930B54177E
:1004800010F0CF96089501970895FC01918D828D0B
:10049000981761F0A28DAE0FBF2FB11D5D968C91A4
:1004A000928D9F5F9F73928F90E008958FEF9FEFE3
:1004B00008950F931F930E94F5016093AE0170930E
:1004C000AF018093B0019093B10186EA91E00E9460
:1004D000450297FF1DC00E94F5010091AE011091E9
:1004E000AF012091B0013091B101601B710B820B03
:1004F000930B0091AA011091AB012091AC013091B6
:10050000AD016017710782079307F8F28FEF9FEF35
:100510001F910F910895FC01918D828D981731F0F4
:10052000828DE80FF11D858D90E008958FEF9FEF8C
:100530000895FC01918D228D892F90E0805C9F4F62
:10054000821B91098F739927089586EA91E00E9492
:10055000990221E0892B09F420E0822F089580E0A0
:1005600090E0892B29F00E94A50281110C940000D3
:100570000895FC01A48DA80FB92FB11DA35ABF4F38
:100580002C91848D90E001968F739927848FA68992
:10059000B7892C93A089B1898C91837080648C93E6
:1005A000938D848D981306C00288F389E02D808195
:1005B0008F7D80830895EF92FF920F931F93CF93C7
:1005C000DF93EC0181E0888F9B8D8C8D98131AC08E
:1005D000E889F989808185FF15C09FB7F894EE8975
:1005E000FF896083E889F9898081837080648083D2
:1005F0009FBF81E090E0DF91CF911F910F91FF901D
:10060000EF900895F62E0B8D10E00F5F1F4F0F73C4
:100610001127E02E8C8D8E110CC00FB607FCFACF7F
:10062000E889F989808185FFF5CFCE010E94B90262
:10063000F1CFEB8DEC0FFD2FF11DE35AFF4FF08250
:100640009FB7F8940B8FEA89FB8980818062CFCFB6
:10065000CF93DF93EC01888D8823B9F0AA89BB89F9
:10066000E889F9898C9185FD03C0808186FD0DC0E4
:100670000FB607FCF7CF8C9185FFF2CF808185FF05
:10068000EDCFCE010E94B902E9CFDF91CF9108955D
:100690006F3FA9F0E62FE295EF7044E0E49F9001F0
:1006A0001124DC01ED91FC91E20FF31F6F70828148
:1006B0009381B6E06B9F800D911D1124089590E009
:1006C00080E00895982F80336CF08A3324F08F35C2
:1006D00024F08B3724F481E0089581341CF081E00C
:1006E0009B350CF080E00895CF93DF93EC01888177
:1006F0009981DC01ED91FC910190F081E02D09954B
:100700002A813B81820F931F9B838A83DF91CF9144
:100710000895CF93DF93EC0188819981DC01ED91FD
:10072000FC910280F381E02D09952A813B81820FA3
:10073000931F9B838A83DF91CF9108958F929F921D
:10074000AF92BF92CF92DF92EF92FF920F931F93DF
:10075000CF93DF93CDB7DEB766970FB6F894DEBFC1
:100760000FBECDBF6C018E01095E1F4F78018AE07C
:10077000882E912CA12CB12CCB01BA01A50194019A
:100780000E94881A942F852F605DF80162938F0173
:10079000A901692F782F411551056105710561F790
:1007A000A7014E1B5F0BBF01C6010E94890366961D
:1007B0000FB6F894DEBF0FBECDBFDF91CF911F9172
:1007C0000F91FF90EF90DF90CF90BF90AF909F90F0
:1007D0008F900895FC018485811114C0A781B08594
:1007E000818592852FEF3FEFA817B90730F4CD012F
:1007F0000196908787832C9130E037FD20E0238796
:1008000081E08487838508951F93CF93DF93EC0164
:10081000162F0E94EA03811306C01C8681E0DF9137
:10082000CF911F91089580E0FACF0F931F93CF933C
:10083000DF938C01EB018991882369F0C8010E9444
:10084000EA03882379F0FE013197908198130DC057
:10085000F8011486F0CF90E080E0DF91CF911F91F6
:100860000F91089582E090E0F8CF83E090E0F5CF1B
:10087000CF93DF93EC01CE010E94EA038B304CF45E
:1008800089305CF4882359F081E08E8390E080E029
:100890000BC08D3011F08032B9F71C86ECCF8E8101
:1008A000811105C081E090E0DF91CF91089582E051
:1008B00090E0FACFCF93DF93DB01FC01808191813F
:1008C0000097E1F012962C91129713964C91139782
:1008D000342F3F77FC0143814217130671F7ED91E6
:1008E000FC911197EC0124962E0F3F1FE217F3079E
:1008F00029F0519149915417C9F3DFCFDF91CF917E
:100900000895DC0152969C915297915084E0989FF3
:10091000900111245096ED91FC91E20FF31F22817A
:1009200033812115310579F041818081481758F4D0
:1009300081E0840F818386E0489F200D311D1124C2
:100940002115310521F460E070E08FEF0895B901C1
:10095000892F8295807F840F0895DF92EF92FF9216
:100960000F931F93CF93DF93EC017B01D12C688908
:1009700079898A89D816E0F484E0D89E8001112410
:10098000060F171FD80112966D917C9161157105A4
:1009900041F0D701ED91FC910280F381E02DC70178
:1009A0000995F8011382128210821182D394DFCF4D
:1009B0001A8A8FEF8C8BC617D70761F0D701ED919C
:1009C000FC910280F381E02DC7010995D98BC88B7A
:1009D00084E08B8BDF91CF911F910F91FF90EF906F
:1009E000DF900895FC0180E091E091838083128282
:1009F00014821382CF010596968B858B178A84E02B
:100A0000808F8FEF818F168E878F08954F925F9220
:100A10006F927F928F929F92AF92BF92CF92DF920E
:100A2000EF92FF920F931F93CF93DF9300D000D0EC
:100A30001F92CDB7DEB7DC012C912B32E1F12D32C4
:100A4000D9F50196EE24E394FC01208130ED320FBC
:100A50003A3010F02E3291F58C0160E070E0CB015D
:100A6000F801219130ED832E820E39E0381508F41B
:100A700044C06A3949E97407840749E1940708F0DA
:100A800046C0AAE0B0E09B01AC010E94461A912C3E
:100A9000B12CA12C240135014094509460947094A1
:100AA000461657066806790690F1680D791D8A1D6D
:100AB0009B1D8F01D5CF0196E12CC6CF19822981CC
:100AC0003A814B815C816D8170E080E090E00F9015
:100AD0000F900F900F900F90DF91CF911F910F917A
:100AE000FF90EF90DF90CF90BF90AF909F908F904E
:100AF0007F906F905F904F900895211108C0EE2075
:100B000051F161307105810550E89507A0F0F12C95
:100B1000BAE08B2E912CA12CB12C6115710530E817
:100B200083079105F8F0A50194010E94881ACA0173
:100B3000B901F394F2CF22E029839B01AC0188270D
:100B40009927DC01821B930BA40BB50B8A839B8333
:100B5000AC83BD83B4CF23E029836A837B838C83FA
:100B60009D83ADCFF801D8012D918D0130ED320F6D
:100B70003A3010F4F394F6CF2E3201F58F010F5F67
:100B80001F4FF8010F5F1F4F2081A0EDDA2ED20E0C
:100B9000B9E0BD1598F06C3CECEC7E07ECE08E07FC
:100BA000910578F7AAE0B0E09B01AC010E94461ADB
:100BB0006D0D711D811D911DFA94E3CF20812F7D54
:100BC00010E000E0253409F050C021812D32B1F54C
:100BD0003296CC24C394DF0110E000E02F2D0F2CBF
:100BE000000C330B5AE0B52EFD01DD9040ED4D0DAC
:100BF0004A30B0F5B09EA001B19E500D11240D2DCC
:100C0000DD0C110B00531109040F151FA801420F31
:100C1000531F4732510544F3CC20B9F080E090E0F7
:100C2000A0E0B0E8E11003C080E090E0DC0121E04A
:100C300029838A839B83AC83BD8341CF2B3219F0F8
:100C40003196C12CC8CF3296FCCF80E090E0A0E86E
:100C5000BFEFE110ECCF80E090E0A0E8BFE7E7CF86
:100C6000CC2019F01195019511092081211126CF71
:100C70000F0D111DF7FC1A950E9408193AEDC32EAD
:100C800030E0D32E101611063CF011950195110994
:100C900042ECC42E40E0D42EF12C0115110591F048
:100CA00000FF0CC024E0F29EF0011124EC0DFD1DAC
:100CB00025913591459154910E9469191595079593
:100CC000F394EBCFE110905821E029836A837B8372
:100CD0008C839D83F4CECF92DF92EF92FF920F939D
:100CE0001F93CF93DF937C016B018A01FC01C081CC
:100CF000D1814F3F510509F0B0F4E881F9810480BA
:100D0000F581E02D4B5F5F4FCE010995009759F0BB
:100D1000FC010383DF91CF911F910F91FF90EF9022
:100D2000DF90CF900895E881F9810280F381E02D72
:100D3000B601CE01099581E0F701828390E080E061
:100D4000E9CF1F93CF93DF93EC01162F6A817B814C
:100D50006115710589F04C815D81FB0183818417E8
:100D6000150651F4440F551F4F5F5F4F88819981DD
:100D70000E946B069B838A838A819B81009759F02E
:100D80002C813D81A9014F5F5F4F5D834C83820FB2
:100D9000931FFC011483DF91CF911F9108959F92BF
:100DA000AF92BF92CF92DF92EF92FF920F931F9379
:100DB000CF93DF9300D000D01F92CDB7DEB78C0168
:100DC0000E94EA03D82EF8011486F12CE12C60EF82
:100DD000C62EC8010E94EA03F8011486D81609F449
:100DE000B3C0811113C082E090E00F900F900F907C
:100DF0000F900F90DF91CF911F910F91FF90EF9087
:100E0000DF90CF90BF90AF909F9008958C3509F000
:100E100099C0C8010E94EA03882329F3E9E2F1E0BE
:100E2000853709F083C0F801148654E0952EB12C63
:100E3000A12CC8010E94EA038823A9F2813434F46A
:100E40008053803130F083E090E0CFCF8F7D8753A7
:100E5000F8CF44E0AA0CBB1C4A95E1F7A82AF80198
:100E600014869A949110E5CFC501985D8115944040
:100E700020F47501F3E0FF22ACCFC5019C5D811524
:100E80009440A8F483E0B822B701762F6627770F45
:100E9000770F6A297B2990E080E001966038710520
:100EA0008105910540F4C8010E94A10692CFB501C9
:100EB00090E080E0F3CF1982262F2F7320682A83D9
:100EC00026E096958795779567952A95D1F76032B4
:100ED000710580F4606C6B835E01E4E0AE0EB11CC2
:100EE000F50162915F01662309F473CFC8010E9486
:100EF000A106F6CF262F2F7320682B8386E07695E8
:100F000067958A95E1F76031710538F4606E6C83FE
:100F10005E01F5E0AF0EB11CE3CF60686C83CD825B
:100F20005E0126E0A20EB11CDBCF329690819923A0
:100F300009F489CF8913F9CF8181882309F483CFFC
:100F4000F8011486682FAFCF82819381892B19F421
:100F500084E090E04ACF90E080E047CFAF92BF922C
:100F6000CF92DF92EF92FF920F931F93CF93DF9375
:100F700000D000D0CDB7DEB7DC0112962D913C91A8
:100F800013972C5F3F4F14964D915C91443051055F
:100F900080F57901D901E0E0142F022FFA2FF21B1E
:100FA000F11730F4DD90F1E0D110F0E0EF2BF6CF47
:100FB000E1111FC082E0FB0184838E2D801B81170D
:100FC00028F4D7018D917D018193F7CF640F751FB0
:100FD000FB0110820F900F900F900F90DF91CF9137
:100FE0001F910F91FF90EF90DF90CF90BF90AF9047
:100FF00008957B018C01420F531FDA011C92FC0102
:10100000C080D180A480B5803A832983AB828B2DA8
:101010008F778C83BE016F5F7F4FC60103960E945E
:101020005A040097D9F4D80112966D917C91A501CC
:10103000C6010E946B06D801ED91FC912381348199
:10104000DC012D933C9394838383F80113821282F5
:1010500025E0F701248391838083BCCFDC011296C5
:101060002C9112972F5F12962C93F2CFDB01ED910A
:10107000FC9111970280F381E02DBC01CD01099410
:10108000AF92BF92CF92DF92EF92FF920F931F9396
:10109000CF93DF93EC018B018C8180FF24C0A8816A
:1010A000B981FB018381948130E020E00097D9F081
:1010B000A817B907D1F5F8016081718112968C915A
:1010C0001297815012968C93129781110CC08D91BA
:1010D0009C9111972115310529F1F90191838083A4
:1010E000CD010E9436088C81807631F1209721F164
:1010F000F8805801F5E1AF0EB11C8FEFF816D1F072
:101100006F2DC5010E9448036C01FC01E580B80108
:101110000E944008F801818DF6018083F801F18E6C
:10112000FE2CEBCF94838383DBCF9C01FC01808179
:101130009181BCCFF882F9821C82DF91CF911F91FF
:101140000F91FF90EF90DF90CF90BF90AF900895F8
:101150000F931F93CF93DF93EC01088119818B814B
:101160009C81009749F0FC01208131813C832B83D5
:10117000B8010E943608F3CF68817981CE010596C7
:10118000DF91CF911F910F910C94AD04CF93DF931A
:10119000EC01CB01CF3FD10509F0B0F4BE016B5F8C
:1011A0007F4F6C177D0780F0DC01ED91FC91019081
:1011B000F081E02D0995009721F0FC01C38321E027
:1011C0002283DF91CF91089590E080E0FACF8F9253
:1011D0009F92AF92BF92CF92DF92EF92FF920F93C6
:1011E0001F93CF93DF9300D000D0CDB7DEB7DC01E3
:1011F00069014A014115510509F456C077FF08C03D
:1012000084E014968C9314974D935C9381E04DC0C9
:101210007F777B016430710518F5FA0190E0242F87
:101220008E2F8819861730F4819131E0811130E0DA
:10123000932BF6CF911114C082E014968C931497DF
:101240008D01842F821B861738F4FA018191AF013A
:10125000F80181938F01F5CFA60FB11D1C92D6CF57
:101260008D01F601A080B1809A8289826B837C8394
:10127000BE016F5F7F4FC60103960E945A0400971C
:1012800051F0FC0122812F5F228325E0F8012483A5
:1012900091838083BBCFB501C7010E94C608009728
:1012A000A9F481E0F601828380E00F900F900F9007
:1012B0000F90DF91CF911F910F91FF90EF90DF90F2
:1012C000CF90BF90AF909F908F900895E981FA8161
:1012D000DC011496A7014E0F5F1FE417F50719F004
:1012E00021912D93FACFFC01EE0DFF1D1482F60122
:1012F00023813481FC0131832083F601948383832D
:10130000C4CFCF92DF92EF92FF920F931F93CF93B0
:10131000DF930097A9F089016A017B01EC01B90113
:101320000E9440089801B701A601CE01DF91CF913C
:101330001F910F91FF90EF90DF90CF900C94E708F2
:10134000DF91CF911F910F91FF90EF90DF90CF90A1
:101350000895CF93DF93DC01ED91FC9190E080E064
:10136000309741F0DF010D900020E9F7CD010197A2
:101370008E1B9F0BDB01BF77BF01C42FD52F9D01B3
:101380008A179B0708F49C01AF01420F531F4617B1
:101390005707A1F0FB012191BF0139912317B9F340
:1013A000822F220F990B831B910937FD939597FD8F
:1013B00010C0892B49F481E090E008C08A179B0790
:1013C00040F0A817B907B8F784E090E0DF91CF911B
:1013D000089582E090E0FACFFC0181E090E0208166
:1013E0003181232B11F090E080E00895FB01019002
:1013F0000020E9F73197AF01461B570B0C94890386
:10140000CF92DF92EF92FF920F931F93CF93DF93D0
:101410008C016B017A0162E20E947403E601EC0C1C
:10142000FD1CEC16FD0699F06991E9E2F1E0D4802B
:10143000DD20C9F0329683816813F9CF6CE5C801CD
:101440000E9474036D2DC8010E947403EACF62E20A
:10145000C801DF91CF911F910F91FF90EF90DF9026
:10146000CF900C9474036111EECF6CE371E0C8016E
:101470000E94F609D6CFFC0130E020E0611571052D
:1014800049F0DB010D900020E9F79D012150310961
:10149000261B370B718360832283832F8F77938181
:1014A0009078982B40FB97F9938308952F923F9261
:1014B0004F925F926F927F928F929F92AF92BF9264
:1014C000CF92DF92EF92FF920F931F93CF93DF9310
:1014D000CDB7DEB76B970FB6F894DEBF0FBECDBFAA
:1014E0007C018B01DC0114968C911497863009F4F1
:1014F000A3C2F8F4833009F492C258F440E0B70173
:10150000823009F47BC263E471E0C8010E94F609ED
:1015100081C2843009F46EC28530A9F7ED91FC9147
:10152000438150E0BF016C5F7F4FC8010E94000AF9
:101530001CC28E3009F443C0E0F48A3009F477C24B
:101540008C3009F7CD90DD90ED90FC90B701A601AD
:10155000F7FE0BC06DE2C8010E94740344275527B3
:10156000BA014C195D096E097F09C8010E949E03EA
:10157000FCC1803209F415C2803429F66BE5C8013C
:101580000E947403D701FC90BFEFFB1609F4E9C178
:10159000F801848195816F2D45960E9448037C0156
:1015A000B8010E94560AD7011596FC90BFEFFB16B2
:1015B00009F4D7C16CE2C8010E947403E5CFF701BA
:1015C00080809180A280B380A5019401C501B401FF
:1015D0000E940319882331F063E471E0C8010E947E
:1015E000F609C3C120E030E0A901C501B4010E94A1
:1015F0000319882371F0A5019401C501B4010E946B
:10160000BA1A9B01AC01C501B4010E9403198823D9
:1016100019F320E030E0A901C501B4010E940319CB
:1016200087FF08C06DE2C8010E947403B7FAB09446
:10163000B7F8B09420E836E948E15BE4C501B401AD
:101640000E945C1B87FD83C074E1C72ED12CE0E2B1
:10165000EE2EF12C312C212CF601E652FF4F659134
:10166000759185919491A50194010E940319181612
:101670007CF0F601EE53FF4F259135914591549141
:10168000C501B4010E9469194B015C012E0C3F1C7D
:10169000F594E794F4E0CF1AD1082CEFC2162FEF9F
:1016A000D206D1F63FEF3F8B20E030E0A901C50123
:1016B000B4010E945C1B18160CF051C02CEA35ECEA
:1016C00047E257E3C501B4010E94031918160CF450
:1016D00046C0AF89B4E0AB02C0011124D12CC12CAB
:1016E000FC01EE53FF4F2F019C0126523F4F390161
:1016F0003F893F3F09F433C0F201EC0DFD1D6591B8
:1017000075918591949120E030E040E251E40E948F
:101710006919A50194010E945C1B18167CF4F30161
:10172000EC0DFD1D2591359145915491C501B401F4
:101730000E9469194B015C012E183F08F594E7944B
:101740008F8981508F8B94E0C91AD108D1CF50E294
:10175000E52EF12C85E08F8B312C212CA5CFC501F6
:10176000B4010E942D1B6B017C012B013C0180E424
:1017700092E4AFE0B0E0888F998FAA8FBB8F96E09C
:101780009F8BAAE04A16510461047104E0F0688D51
:10179000798D8A8D9B8D2AE030E040E050E00E94F8
:1017A000881A288F398F4A8F5B8FBF89B150BF8BC2
:1017B000C301B2012AE030E040E050E00E94881A04
:1017C00029013A01DECFC701B6010E9408199B0129
:1017D000AC01C501B4010E94B91A4B015C01688DCE
:1017E000798D8A8D9B8D0E9408199B01AC01C501E2
:1017F000B4010E9469192B013C010E942D1B4B0171
:101800005C010E9408199B01AC01C301B2010E9456
:10181000B91A9B01AC010E94BA1A0E942D1B860EB8
:10182000971EA81EB91E888D998DAA8DBB8D88160E
:101830009906AA06BB06C0F09FEFC91AD90AE90AA1
:10184000F90A2114310439F1AAE0CA16D104E104DD
:10185000F10408F1BFEF2B1A3B0A812C912C5401A3
:10186000C12CD12C7601C3942AE0422E512C612C3C
:10187000712CC501B401A30192010E94881A672B43
:10188000682B692B61F4EF891E164CF449015A014B
:10189000E150EF8BEECF812C912C5401E5CFB701B5
:1018A000A601C8010E949E03FF89FF2391F16E01EA
:1018B00021E1C20ED11CF88F76019AE0492E512CFD
:1018C000612C712C388D3150388F3F3F69F0C50144
:1018D000B401A30192010E94881A605DD6016E9343
:1018E0006D0149015A01EECFBF898B2F90E0BC01F9
:1018F00060957095F701E81BF90B31978EE28083B4
:1019000044275527461B570B6E0D7F1DC8010E94AB
:1019100089032114310449F165E6C8010E9474036A
:10192000710137FE07C06DE2C8010E947403F19493
:10193000E194F108FE0177969F018AE0C82ED12C30
:10194000C701B6010E94611B805D82937B01672BFA
:10195000B9F7A9014E1B5F0BBF01C8010E948903A3
:1019600004C06DE5C8010E947403F801828193816F
:101970006B960FB6F894DEBF0FBECDBFDF91CF914F
:101980001F910F91FF90EF90DF90CF90BF90AF909D
:101990009F908F907F906F905F904F903F902F908F
:1019A00008956BE7C8010E947403D701FC90EE24F0
:1019B000E394BB24B394BFEFFB16D1F0F80184810C
:1019C00095816F2D45960E9448036C01B8010E94D5
:1019D000560AD6011596FC90BFEFFB1639F06AE364
:1019E000E11001C06CE2C8010E947403EB24E3CF54
:1019F0006DE7B8CFF7016081718141E0CE010196BA
:101A00000E943B0A4B815C815F7769817A81C801C2
:101A10000E94000AD80112968D919C91A9CFED9158
:101A2000FC91438150E0BF016C5F7F4F96CF4D9199
:101A30005D916D917C9199CD8C9168E471E08111FB
:101A4000CDCD6DE471E0CACDCF93DF9300D000D04F
:101A500000D0CDB7DEB7DC01CB0126EA31E03A8316
:101A600029831C821B82BE83AD83009771F0BE0167
:101A70006F5F7F4F0E94560A26960FB6F894DEBF1E
:101A80000FBECDBFDF91CF91089563E471E0CE0129
:101A900001960E94F6098B819C81EECFAF92BF9296
:101AA000CF92DF92EF92FF920F931F93CF93DF932A
:101AB00000D000D0CDB7DEB7B62EA72E7A01452BC9
:101AC00009F45EC089010B5E1F4FFC016081C801F3
:101AD0000E944803FC01DD24DA94892B09F0D580AB
:101AE000CC24C394309709F44BC0CC2019F18481E5
:101AF000843059F18530B9F18230E9F540E0BF0119
:101B0000CE0101960E943B0AA981BA818B814C814A
:101B1000942F9F774B2D5A2D5F774817590751F413
:101B2000F7018E0D9F1D8E179F07D9F131912D91D1
:101B30003217C9F381E0C8266D2DC8010E94480301
:101B4000FC01892B79F2D580CDCF6081718141E094
:101B5000CE0101960E943B0A4C8199818A81A92F6E
:101B6000B82F8B81D5CF0190F081E02DDF01149645
:101B7000838190E0CFCF90E080E0B0E0A0E0CACFDA
:101B800090E080E00F900F900F900F90DF91CF9139
:101B90001F910F91FF90EF90DF90CF90BF90AF908B
:101BA00008956D2DC8010E944803ECCFFC012081EF
:101BB0003181C9014A9642815381648175810097C0
:101BC00059F0D9015E96EC91E03211F090E080E09E
:101BD000009711F00C944E0D90E080E00895CF92A4
:101BE000DF92EF92FF92CF93DF9300D000D01F924D
:101BF000CDB7DEB70E94D60DDC01009709F446C0D0
:101C00001496EC911497E250ED3008F03FC0F0E0EC
:101C1000E45FF14F0C94751B4B0E460E490E5C0EA3
:101C2000190E460E460E460E280E460E350E460E70
:101C3000600E6C9170E0CB010F900F900F900F90A1
:101C40000F90DF91CF91FF90EF90DF90CF900895AC
:101C50008D919D910D90BC91A02D811520E892074A
:101C6000A105B10598F4BC01E6CF8D919D910D9031
:101C7000BC91A02D6C017D0120E8D20EE11CF11C6D
:101C8000C114D10421E0E206F10468F370E060E0E1
:101C9000D2CF8D919C910E9406053A834B835C8341
:101CA0006D83CA80DB80EC80FD80223031F12330EF
:101CB00081F1213059F708C08D919C910496EBCFAA
:101CC000CD90DD90ED90FC9020E030E040E057ECCE
:101CD000C701B6010E945C1B87FDD8CF20E03EEF14
:101CE0004FEF56E4C701B6010E940319181674F2AB
:101CF000C701B6010E94261B9ECFD701C60190588E
:101D0000AF4FBF4F0097A140B10508F0BFCFB6015C
:101D100092CFC11480E8D806E104F104C0F3B6CF35
:101D2000CB010C941E1C0F931F93CF93DF93EC01F8
:101D300088819981009759F02A813B8126173707BE
:101D400030F081E0DF91CF911F910F9108958B01C9
:101D50006F5F7F4F0E94A71C009759F0998388837B
:101D60001B830A832C813D81232B59F7FC011082B0
:101D7000E8CF80E0E7CFCB01BA010C94A71CBF925B
:101D8000CF92DF92EF92FF920F931F93CF93DF9347
:101D9000EC01198D1F3F81F0612F45960E94480389
:101DA000FC018081898F309709F477C014828FEF0E
:101DB0008583BF01812F76C06C0135E0C30ED11C35
:101DC000E880F9808F89882341F0C6010E94810450
:101DD000E62FF72F182F309749F71F89988D191381
:101DE00024C0103109F459C0110F6D897E89D701C3
:101DF000ED91FC91B4E01B9FA0011124C616D706FB
:101E000009F044C00190F081E02DBA01C7010995A5
:101E1000009709F442C020E1F601DC0101900D9227
:101E20002A95E1F79E8B8D8B188F0D891E898F89DE
:101E300021E0280F2F8BE4E08E9FC0011124080FB2
:101E4000191F90E1B92E203111F48FE0B82EF6E081
:101E5000BF9EB0011124D701ED91FC910190F0815A
:101E6000E02DC7010995F80193838283892B09F43A
:101E7000B12CD801BC9211961C92012B71F0C601B5
:101E80000E948104E62FF72F182F8DCF0480F58153
:101E9000E02DC7010995009729F681E08A8360E06B
:101EA00070E08FEFDF91CF911F910F91FF90EF9036
:101EB000DF90CF90BF9008953F924F925F926F92C4
:101EC0007F928F929F92AF92BF92CF92DF92EF92CA
:101ED000FF920F931F93CF93DF9300D000D01F92F8
:101EE000CDB7DEB78C017B01742E0E9438046C01E3
:101EF000892B09F050C0C8010E94EA03863609F414
:101F0000BEC164F5873229F08B35A1F1823209F028
:101F1000BFC1F8011582148282819381892B99F4C3
:101F2000C080D180D6016D917C918FE190E00E94BC
:101F3000C608009719F421E0F6012283D801139610
:101F40009C938E931297C8010E94CF066C01892B37
:101F500011F5B701C8010E94AE071DC0843709F40E
:101F60006EC18B3709F47CC08E3609F091C163E4F1
:101F700071E06CC180E4D70114968C931497E1143E
:101F8000F10421F08FEF8C9311968C9371101BC08C
:101F900025E0C22ED12CC6010F900F900F900F900C
:101FA0000F90DF91CF911F910F91FF90EF90DF90F5
:101FB000CF90BF90AF909F908F907F906F905F90E9
:101FC0004F903F900895F8011486C8010E9438048C
:101FD000009751F56DE5C8010E9404048111DBCF23
:101FE0007A94D8011D968D909C90C4010E94BF0EDA
:101FF000682E5B01672B21F494E0C92ED12CCBCF46
:10200000F70161816F3F91F0C40145960E9448033A
:10201000DC0115966C92F7016182472DB501C8016C
:102020000E945C0F009739F06C01B5CFD7018C93FB
:1020300011968C93F2CFC8010E9438040097A1F743
:102040006DE5C8010E9404048111A5CF6CE2C801AE
:102050000E9404048111C5CF83E0C82ED12C9BCFF0
:1020600080E2F7018483E114F10419F08FEF80839B
:102070008183772009F48CCFD8011C961C92C8016B
:102080000E943804009781F66DE7C8010E9404049D
:10209000811181CF552453947A94F80115821482CA
:1020A00082819381892B91F4C080D180D6016D917A
:1020B0007C918FE190E00E94C608009711F4F60130
:1020C0005282D80113969C938E931297C8010E9456
:1020D000EA03873201F18232F1F0C8010E94EA037B
:1020E000D82E0E946203882309F4B6CFF801148623
:1020F0006D2DC8010E94A106C8010E94EA03D82ED6
:102100000E9462038111F2CFD80112968D919C91A9
:10211000892B41F471CFC8010E94CF066C01892B35
:1021200009F039CFC8010E9438046C01892B09F0ED
:1021300032CF6AE3C8010E940404882309F48CCFDB
:10214000D8011296ED91FC91139714968D919C9164
:102150001597E80FF91F148214966D917C911597CD
:102160007F771D962D913C911E9712968D919C9193
:102170000496472F4F77B62DB0786B2E642AE894DB
:1021800067F8AC01762DC7010E944E0D6C01F80175
:1021900085849684009759F5C4010E94BF0E382E9D
:1021A0005B01672B09F428CFC4010E94BF0E482EA3
:1021B000962FC92ED72EC114D10409F41DCFD501F5
:1021C00015964C92F70161816F3F71F0C4014596FD
:1021D0000E944803DC0115963C92F7014182B5014B
:1021E000C8010E94AE0706C030824182F8CFB40118
:1021F0000E944008472DB601C8010E945C0F6C0187
:10220000892B09F0C8CEC8010E9438046C01892BC3
:1022100009F0C1CE6DE7C8010E9404048111BBCE54
:102220006CE2C8010E940404882309F415CFC80198
:102230000E9438046C01892B09F42FCFACCE86E0C4
:10224000F701848381E0808368E471E0C8010F9026
:102250000F900F900F900F90DF91CF911F910F91E2
:10226000FF90EF90DF90CF90BF90AF909F908F90B6
:102270007F906F905F904F903F900C94150486E094
:10228000D70114968C9314971C926DE471E0DECF05
:10229000C8010E94EA034801BFE08B0E911CB12CDB
:1022A000782CA92C803384F08A3384F4EFE3BE16B3
:1022B000A9F0D8011C961C92B394F40181934F01AC
:1022C000C8010E94EA03EECF8B3281F393ED980FA1
:1022D000923060F3982F9F7D953441F30B0D111DC3
:1022E000D8011F961C92872D9A2D0E9406053A83CD
:1022F0004B835C836D838A819B81AC81BD8122305D
:10230000A9F0233059F0213009F0A6CE2EE0F701D4
:10231000248380839183A283B3833DCE2AE0F70197
:10232000248380839183A283B38335CE2CE0F7CFBF
:102330008F929F92AF92BF92CF92DF92EF92FF92D5
:102340000F931F93CF93DF93FC01C081D181CE0106
:102350004A9689F430E020E0B901CE01DF91CF91B7
:102360001F910F91FF90EF90DF90CF90BF90AF90B3
:102370009F908F90089582809380A480B580228161
:1023800033812115310531F34E8D411119C040E2E1
:102390004E8F4FEF4A8F4B8F49019E01B501A4012B
:1023A0000E944E0D9C01892BB9F6CE010E94BF0EF2
:1023B000C82E7B01672B39F410E000E09801CCCFE8
:1023C000403251F3C7CFCE010E94BF0ED82E962FB8
:1023D000092F172F0115110579F39E01B501A401ED
:1023E000C7010E94E708882339F3F701D5826B8D76
:1023F0006F3F41F0CE0145960E944803FC01C58223
:10240000DB8EDCCFCA8EFCCFCF93DF93EC010E9432
:102410009811DC01CB0140E050E0BA0143E551E006
:1024200063E0707870689D010E948109E881F981FC
:1024300080E0309719F0828191E08927DF91CF9178
:1024400008950F931F93CF93DF938B010E949811F0
:10245000DC01CB01EB010097B1F0F80100811181A3
:10246000BD010E9440088CE08C83012E000C220BE1
:10247000330B088319832A833B8381E0DF91CF915B
:102480001F910F91089580E0F9CFCB010C94821B2E
:102490001F920F920FB60F9211242F933F938F9399
:1024A0009F93AF93BF9380919E0190919F01A091C4
:1024B000A001B091A10130919D0123E0230F2D37A0
:1024C00058F50196A11DB11D20939D0180939E0199
:1024D00090939F01A093A001B093A1018091A201CC
:1024E0009091A301A091A401B091A5010196A11D15
:1024F000B11D8093A2019093A301A093A401B09376
:10250000A501BF91AF919F918F913F912F910F9016
:102510000FBE0F901F90189526E8230F0296A11D5D
:10252000B11DD2CF1F920F920FB60F9211242F938D
:102530003F934F935F936F937F938F939F93AF934B
:10254000BF93EF93FF9386EA91E00E94B902FF9157
:10255000EF91BF91AF919F918F917F916F915F911B
:102560004F913F912F910F900FBE0F901F90189594
:102570001F920F920FB60F9211242F938F939F9358
:10258000EF93FF93E091B601F091B7018081E09164
:10259000BC01F091BD0182FD1BC090818091BF0103
:1025A0008F5F8F732091C001821741F0E091BF01CE
:1025B000F0E0EA55FE4F958F8093BF01FF91EF91B8
:1025C0009F918F912F910F900FBE0F901F90189594
:1025D0008081F4CFCF93DF93CDB7DEB7C05AD10956
:1025E0000FB6F894DEBF0FBECDBF789484B582607D
:1025F00084BD84B5816084BD85B5826085BD85B5A7
:10260000816085BD80916E00816080936E00109224
:10261000810080918100826080938100809181009F
:102620008160809381008091800081608093800030
:102630008091B10084608093B1008091B00081608E
:102640008093B00080917A00846080937A008091BA
:102650007A00826080937A0080917A008160809312
:102660007A0080917A00806880937A001092C1008D
:10267000E091B601F091B70182E08083E091B20170
:10268000F091B3011082E091B401F091B5018FECAB
:1026900080831092BE01E091BA01F091BB0186E007
:1026A0008083E091B801F091B901808180618083DD
:1026B000E091B801F091B901808188608083E09158
:1026C000B801F091B901808180688083E091B80100
:1026D000F091B90180818F7D808362E082E00E9469
:1026E000FB0061E089E00E94FB0061E08AE00E945B
:1026F000FB0061E08BE00E94FB0061E089E00E944A
:10270000CD000E94C00160E089E00E94CD0061E040
:102710008AE00E94CD000E94C00160E08AE00E9431
:10272000CD0061E08BE00E94CD000E94C00160E01E
:102730008BE00E94CD0030E5C32ED12CCC0EDD1EE7
:1027400025E0C20ED11C44244A9423E0522E612C71
:10275000712C8E010F5F1F4F1E013BE1230E311CB8
:1027600040E550E04C0F5D1F465E5F4FC156DF4FA6
:1027700059834883CF59D0408EE00E9489012FEFC2
:1027800030E0DC010E947B1BA30192010E94271A0A
:10279000C058DF4F39832883C058D0408FE00E9453
:1027A00089012FEF30E0DC010E947B1BA301920125
:1027B0000E94271AC258DF4F39832883CE57D04052
:1027C00080E10E9489012FEF30E0DC010E947B1B39
:1027D000A30192010E94271AEE963FAF2EAFEE970B
:1027E000E0EBF0E08491ECE9F0E0E490E8E8F0E080
:1027F000F490FF2009F489C181110E94A400EF2DFB
:10280000F0E0EE0FFF1FE859FF4FA591B491EC9156
:10281000EE2291E080E009F490E0E92EF82EFE2D02
:10282000F170BF2E80910301F81761F00E94F5014D
:102830006093990170939A0180939B0190939C01FE
:10284000B09203010E94F5012091990130919A0103
:1028500040919B0150919C01621B730B840B950B63
:102860006F31710581059105B0F080910201B816B4
:1028700091F0B0920201EF2809F04AC181E0809303
:1028800098010E94F50160939401709395018093E3
:102890009601909397010E94F5018090900190908D
:1028A0009101A0909201B0909301681979098A0969
:1028B0009B096B3F71058105910508F4C8C08091A3
:1028C00098018111C4C00E94F5016093900170933A
:1028D00091018093920190939301C8010E94F204A8
:1028E00062961FAF0EAF62978DE591E064969FAF41
:1028F0008EAF649784E065968FAF659766968FADCF
:1029000066978078806866968FAF6697CE01805B09
:102910009F4F0E949811DC01CB0120E831E0CE5797
:10292000DF4F39832883C258D04034E0CC57DF4F83
:102930003883C458D040CB57DF4F4881C558D0406A
:102940004078542F5068CB57DF4F5883C558D0403C
:102950009D01CE57DF4F488159816A817B81C258E2
:10296000D0400E94810962961FAF0EAF629787E543
:1029700091E064969FAF8EAF6497FF24F3946596C1
:10298000FFAE659766968FAD66978078806866968D
:102990008FAF6697BE0160587F4FCE01805B9F4F1F
:1029A0000E94211262961FAF0EAF629789E591E0F7
:1029B00064969FAF8EAF64976596FFAE65976696F7
:1029C0008FAD66978078806866968FAF6697BE01F8
:1029D00062587F4FCE01805B9F4F0E94211262960A
:1029E0001FAF0EAF62978BE591E064969FAF8EAFFD
:1029F00064976596FFAE659766968FAD669780780B
:102A0000806866968FAF6697BE0164587F4FCE018F
:102A1000805B9F4F0E942112C556DF4F398228826A
:102A2000CB59D040C356DF4F19830883CD59D040CE
:102A3000C556DF4F688179818A819B81CB59D0400F
:102A40000E94240D0E942E02C8010E94A80886EA56
:102A500091E00E949902181619060CF091C3E296B3
:102A60001FAE1EAEE297E4961FAE1EAEE497E6964A
:102A70001FAE1EAEE69770E060E0CE0180599F4F1A
:102A80000E94930EE2962EAD3FADE29781114CC2AB
:102A90002115310519F0C9010E941E1CE2961FAED6
:102AA0001EAEE297E6961FAE1EAEE697E4961FAE08
:102AB0001EAEE4970E94590297FD40C28A309105EC
:102AC00009F43CC289831A82E696EEACFFACE69725
:102AD0008FEFE81AF80AB701CE0180599F4F0E9484
:102AE000930E882339F3E2962EAD3FADE297E6963A
:102AF0008EAD9FADE697B801820F931F0E946D1DAA
:102B0000E696FFAEEEAEE697D5CFF12CE12C87CE60
:102B100080919801882309F4BECE109298010E94FA
:102B2000F5018090940190909501A0909601B0904D
:102B300097019B01AC01281939094A095B09490130
:102B40005A01C8010E94F20462961FAF0EAF62974D
:102B500087E591E064969FAF8EAF6497FF24F3946E
:102B60006596FFAE659766968FAD669780788068AC
:102B700066968FAF6697BE0160587F4FCE01805B2F
:102B80009F4F0E94211262961FAF0EAF629789E598
:102B900091E064969FAF8EAF64976596FFAE6597A0
:102BA00066968FAD66978078806866968FAF6697D9
:102BB000BE0162587F4FCE01805B9F4F0E94211261
:102BC00062961FAF0EAF62978BE591E064969FAF60
:102BD0008EAF64976596FFAE659766968FAD6697E4
:102BE0008078806866968FAF6697BE0164587F4F85
:102BF000CE01805B9F4F0E942112D501C401825AF1
:102C00009E4FAF4FBF4F883E33E09307A105B105FC
:102C100008F466C046E4841645E09406A104B104B5
:102C200008F0A9C062961FAF0EAF62978DE591E0E4
:102C300064969FAF8EAF649784E065968FAF65977B
:102C400066968FAD66978078806866968FAF669738
:102C5000CE01805B9F4F0E94041262961FAF0EAFA1
:102C6000629782E691E064969FAF8EAF649786E0AC
:102C700065968FAF659766968FAD6697807880680A
:102C800066968FAF6697CE01805B9F4F0E9498112A
:102C9000DC01CB01E9E6F1E0C257DF4FF983E883BD
:102CA000CE58D040F9E0C057DF4FF883C059D0402C
:102CB000CF56DF4F2881C159D0402078322F30685D
:102CC000CF56DF4F3883C159D0409D01C257DF4FE7
:102CD000488159816A817B81CE58D0400E94810908
:102CE0008F8D803209F01DC1C1014DE551E0CE56F6
:102CF000DF4F59834883C259D04054E0CC56DF4F50
:102D00005883C459D040CB56DF4FE881C559D040D5
:102D1000E078FE2FFF77CB56DF4FF883C559D040C0
:102D2000009729F19801CE56DF4F488159816A8179
:102D30007B81C259D0400E944E0D892BC1F0C956EB
:102D4000DF4F39822882C759D040C756DF4F1983D9
:102D50000883C959D040C956DF4F688179818A817B
:102D60009B81C759D0400E94240D0E942E02C801A9
:102D70000E94A80890CD803D9740A105B10508F4B8
:102D8000AFCF5EE2851659E09506A104B10408F0C4
:102D90005DC062961FAF0EAF62978DE591E06496BD
:102DA0009FAF8EAF649784E065968FAF6597669608
:102DB0008FAD66978078806866968FAF6697CE01F4
:102DC000805B9F4F0E94041262961FAF0EAF629706
:102DD00082E691E064969FAF8EAF649786E0659639
:102DE0008FAF659766968FAD669780788068669698
:102DF0008FAF6697CE01805B9F4F0E949811DC01D8
:102E0000CB01E3E7F1E0C657DF4FF983E883CA5807
:102E1000D040F5E0C457DF4FF883CC58D040C357BB
:102E2000DF4F2881CD58D0402078322F3068C357EB
:102E3000DF4F3883CD58D0409D01C657DF4F4881C2
:102E400059816A817B81CA58D04048CF4AE5841AAB
:102E50004AE0940AA108B1085CEB851652E0950699
:102E6000A104B10408F03CCF62961FAF0EAF629789
:102E70008DE591E064969FAF8EAF649784E0659690
:102E80008FAF659766968FAD6697807880686696F7
:102E90008FAF6697CE01805B9F4F0E9404126296AF
:102EA0001FAF0EAF629782E691E064969FAF8EAF40
:102EB000649786E065968FAF659766968FAD669747
:102EC0008078806866968FAF6697CE01805B9F4F53
:102ED0000E949811DC01CB01E9E7F1E0CA57DF4F0E
:102EE000F983E883C658D040F6E0C857DF4FF8832F
:102EF000C858D040C757DF4F2881C958D0402078E4
:102F0000322F3068C757DF4F3883C958D0409D01F2
:102F1000CA57DF4F488159816A817B81C658D040AA
:102F2000DDCE90E080E0E1CEE6961FAE1EAEE697E5
:102F30006BE371E0C9010E946D1DBCCDCE01805BC9
:102F40009F4F0E94F204E696AEACBFACE697E296C5
:102F5000EEACFFACE29762966EAD7FAD6297C601B4
:102F60000E94AD0463961FAE639762968EAC9FACD1
:102F7000629765968EAD9FAD6597009759F0FC01FD
:102F80002081318165963FAF2EAF6597B4010E94D5
:102F90003608EFCFAF961FAEAF9720E530E02C0F8D
:102FA0003D1F3A8329831C821B821E821D821F8241
:102FB000F986E886EA0CFB1CFB86EA861D863F87BD
:102FC0002E874AE0C156DF4F68817981CF59D040C2
:102FD000C8010E945C0F7C01892B59F48C858823E1
:102FE00041F0AF968FADAF9783FF03C083E0E82E2B
:102FF000F12C8B819C81009731F0E981FA8160810D
:1030000071810E943608EF2809F0ADC040E550E01C
:103010004C0F5D1F5A83498383E591E09C838B832A
:1030200083E08D838E81807880688E83C8010E94C2
:10303000D60DFC0185E891E0EC969FAF8EAFEC9742
:10304000309731F4CE0186589F4F0E94EC091FC083
:103050009481963009F487C008F07DC0933009F45C
:1030600082C008F05FC040E0BF01923059F7CE0146
:103070008A589F4F0E943B0AEA964CAD5DAD6EADFB
:103080007FADEA97CE0186589F4F0E94A90901970C
:1030900009F069C020E530E02C0F3D1F3A832983F9
:1030A00089E891E09C838B83FF24F394FD828E81D9
:1030B000807880688E83C8010E94EF0D4C0140E546
:1030C00050E04C0F5D1F5A8349838BE891E09C834D
:1030D0008B83FD828E81807880688E83C8010E94F8
:1030E000EF0D5C0180E590E08C0F9D1F9A83898332
:1030F0008DE891E09C838B83FD828E81807880684F
:103100008E83C8010E94EF0D7C01B40189E00E940A
:103110002C01B5018AE00E942C01B7018BE00E94CE
:103120002C0121C09430F1F1953009F08BCF8081D2
:103130009181FC0163810496CA56DF4FF881C6591C
:10314000D040F078FF77CA56DF4FF883C659D04099
:10315000AC017F2F97CF9E3031F0F8F49A3019F000
:103160009C3009F06FCFCE01805B9F4F0E94A80872
:10317000E2968EAD9FADE297009711F00E941E1C63
:1031800080E090E0892B09F4F7CA0E94A502882309
:1031900009F4D9CA0E940000D6CA903221F39034B3
:1031A00011F350CF6081718141E061CFE6EAF1E037
:1031B0001382128288EE93E0A0E0B0E084839583CE
:1031C000A683B78388E191E09183808385EC90E0CA
:1031D0009587848784EC90E09787868780EC90E0E1
:1031E000918B808B81EC90E0938B828B82EC90E0D2
:1031F000958B848B86EC90E0978B868B118E128E4C
:10320000138E148E08950E94451908F481E00895E4
:10321000E89409C097FB3EF4909580957095619570
:103220007F4F8F4F9F4F9923A9F0F92F96E9BB2726
:103230009395F695879577956795B795F111F8CFA2
:10324000FAF4BB0F11F460FF1BC06F5F7F4F8F4F0D
:103250009F4F16C0882311F096E911C0772321F003
:103260009EE8872F762F05C0662371F096E8862F9B
:1032700070E060E02AF09A95660F771F881FDAF7F2
:10328000880F9695879597F90895990F0008550F1F
:10329000AA0BE0E8FEEF16161706E807F907C0F0DC
:1032A00012161306E407F50798F0621B730B840BE4
:1032B000950B39F40A2661F0232B242B252B21F4BE
:1032C00008950A2609F4A140A6958FEF811D811D5E
:1032D00008950E947C190C94ED190E94DF1938F0B2
:1032E0000E94E61920F0952311F00C94D6190C9445
:1032F000DC1911240C94211A0E94FE1970F3959F79
:10330000C1F3950F50E0551F629FF001729FBB27DC
:10331000F00DB11D639FAA27F00DB11DAA1F649F78
:103320006627B00DA11D661F829F2227B00DA11D2B
:10333000621F739FB00DA11D621F839FA00D611DB1
:10334000221F749F3327A00D611D231F849F600DD2
:10335000211D822F762F6A2F11249F5750409AF0FB
:10336000F1F088234AF0EE0FFF1FBB1F661F771F87
:10337000881F91505040A9F79E3F510580F00C9452
:10338000D6190C94211A5F3FE4F3983ED4F3869546
:1033900077956795B795F795E7959F5FC1F7FE2BF2
:1033A000880F911D9695879597F9089597F99F67CE
:1033B00080E870E060E008959FEF80EC08950024BD
:1033C0000A941616170618060906089500240A948A
:1033D00012161306140605060895092E0394000C10
:1033E00011F4882352F0BB0F40F4BF2B11F460FF9F
:1033F00004C06F5F7F4F8F4F9F4F089557FD9058C8
:10340000440F551F59F05F3F71F04795880F97FBA8
:10341000991F61F09F3F79F0879508951216130662
:103420001406551FF2CF4695F1DF08C01616170691
:103430001806991FF1CF86957105610508940895C6
:10344000E894BB2766277727CB0197F90895052EC7
:1034500097FB1EF400940E943E1A57FD07D00E946D
:10346000881A07FC03D04EF40C943E1A50954095F0
:10347000309521953F4F4F4F5F4F08959095809520
:10348000709561957F4F8F4F9F4F08950E94AA1AA4
:10349000A59F900DB49F900DA49F800D911D1124A8
:1034A00008952F923F924F925F926F927F928F92E8
:1034B0009F92AF92BF92CF92DF92EF92FF920F93C3
:1034C0001F93CF93DF93CDB7DEB7CA1BDB0B0FB6CD
:1034D000F894DEBF0FBECDBF09942A88398848888A
:1034E0005F846E847D848C849B84AA84B984C88420
:1034F000DF80EE80FD800C811B81AA81B981CE0F17
:10350000D11D0FB6F894DEBF0FBECDBFED010895FB
:10351000A1E21A2EAA1BBB1BFD010DC0AA1FBB1FD7
:10352000EE1FFF1FA217B307E407F50720F0A21B49
:10353000B30BE40BF50B661F771F881F991F1A94B6
:1035400069F760957095809590959B01AC01BD01E0
:10355000CF010895A29FB001B39FC001A39F700D3A
:10356000811D1124911DB29F700D811D1124911D8B
:1035700008955058BB27AA270E94D11A0C94ED1920
:103580000E94DF1938F00E94E61920F039F49F3FBD
:1035900019F426F40C94DC190EF4E095E7FB0C9476
:1035A000D619E92F0E94FE1958F3BA17620773075C
:1035B0008407950720F079F4A6F50C94201A0EF4F0
:1035C000E0950B2EBA2FA02D0B01B90190010C0133
:1035D000CA01A0011124FF27591B99F0593F50F44B
:1035E000503E68F11A16F040A22F232F342F4427A3
:1035F000585FF3CF469537952795A795F04053959B
:10360000C9F77EF41F16BA0B620B730B840BBAF06A
:103610009150A1F0FF0FBB1F661F771F881FC2F7D5
:103620000EC0BA0F621F731F841F48F487957795E9
:103630006795B795F7959E3F08F0B0CF9395880FA3
:1036400008F09927EE0F9795879508950E942D1BF6
:103650006894B1110C94211A08950E94061A88F0FA
:103660009F5798F0B92F9927B751B0F0E1F0660F46
:10367000771F881F991F1AF0BA95C9F714C0B13087
:1036800091F00E94201AB1E008950C94201A672F3F
:10369000782F8827B85F39F0B93FCCF386957795B6
:1036A0006795B395D9F73EF490958095709561959F
:1036B0007F4F8F4F9F4F08950E94451908F48FEF59
:1036C0000895AA1BBB1B51E107C0AA1FBB1FA61769
:1036D000B70710F0A61BB70B881F991F5A95A9F7BB
:1036E00080959095BC01CD010895EE0FFF1F0590C8
:1036F000F491E02D09940E94AA1AB7FF0895821B45
:10370000930B08950F931F93CF93DF93823091050E
:1037100010F482E090E0E0914502F091460230E042
:1037200020E0B0E0A0E0309799F42115310509F4CC
:103730004AC0281B390B24303105D8F58A819B817A
:103740006115710589F1FB0193838283FE0111C02C
:10375000408151810281138148175907E0F04817D1
:10376000590799F4109761F012960C9312971396DB
:103770001C933296CF01DF91CF911F910F91089545
:103780000093450210934602F4CF2115310551F004
:103790004217530738F0A901DB019A01BD01DF018F
:1037A000F801C1CFEF01F9CF909346028093450213
:1037B000CDCFFE01E20FF31F819391932250310987
:1037C00039832883D7CF2091430230914402232BA1
:1037D00041F4209106013091070130934402209377
:1037E000430220910401309105012115310541F476
:1037F0002DB73EB74091080150910901241B350BAC
:10380000E0914302F0914402E217F307A0F42E1B6B
:103810003F0B2817390778F0AC014E5F5F4F241734
:10382000350748F04E0F5F1F509344024093430208
:10383000819391939FCFF0E0E0E09CCFCF93DF9313
:103840000097E9F0FC01329713821282A0914502A1
:10385000B0914602ED0130E020E01097A1F4208104
:103860003181820F931F2091430230914402281727
:10387000390709F061C0F0934402E0934302DF91FD
:10388000CF910895EA01CE17DF07E8F54A815B8101
:103890009E0141155105B1F7E901FB83EA83499186
:1038A0005991C40FD51FEC17FD0761F480819181F8
:1038B0000296840F951FE901998388838281938101
:1038C0009B838A83F0E0E0E012968D919C911397A0
:1038D0000097B9F52D913C911197CD010296820F79
:1038E000931F20914302309144022817390739F67B
:1038F000309751F51092460210924502B09344025F
:10390000A0934302BCCFD383C28340815181840FF3
:10391000951FC817D90761F44E5F5F4F8881998161
:10392000480F591F518340838A819B8193838283EF
:103930002115310509F0B0CFF0934602E09345021E
:103940009ECFFD01DC01C0CF13821282D7CFB0E041
:10395000A0E0EDEAFCE10C94531A8C01009751F4BD
:10396000CB010E94821B8C01C801CDB7DEB7E0E11C
:103970000C946F1AFC01E60FF71F9C0122503109CD
:10398000E217F30708F49DC0D901CD91DC9111979E
:10399000C617D70798F0C530D10530F3CE0104978C
:1039A0008617970708F3C61BD70B2297C193D193AD
:1039B0006D937C93CF010E941E1CD6CF5B01AC1A85
:1039C000BD0A4C018C0E9D1EA0914502B09146028D
:1039D000512C412CF12CE12C109731F580914302B0
:1039E000909144028815990509F05CC04616570667
:1039F00008F058C08091040190910501009741F4AE
:103A00008DB79EB74091080150910901841B950B19
:103A1000E817F90708F055C0F0934402E093430219
:103A2000F90171836083A0CF8D919C9111971296BB
:103A30006C90129713967C901397A815B90559F5B9
:103A40006C0142E0C40ED11CCA14DB0420F1AC01AD
:103A50004A195B09DA011296159780F06282738227
:103A600051834083D9016D937C93E114F10471F08B
:103A7000D7011396FC93EE93129776CF22968C0F74
:103A80009D1FF90191838083F301EFCFF0934602EC
:103A9000E093450269CF4816590608F42C017D01D0
:103AA000D3019ACFCB010E94821B7C01009749F081
:103AB000AE01B8010E94641DC8010E941E1C87014E
:103AC00053CF10E000E050CFFB01DC0102C00190B9
:103AD0000D9241505040D8F70895FB01DC01019050
:0C3AE0000D920020E1F70895F894FFCF4C
:103AEC000E01010100004702800000000000451299
:103AFC00900EBB0E00000000DB0201023602280310
:103B0C00990245028B020D0A002F2F272722225CD7
:103B1C005C6208660C6E0A720D7409005C753030BC
:103B2C003030006E756C6C00747275650066616C7B
:103B3C00736500636D6400720067006200747970D5
:103B4C006500616374696F6E006E6578745F736C89
:103B5C006F74006C6561726E0064656C65746500F1
:103B6C0064617461006C656400520047004200009F
:00000001FF
